{
  "_format": "hh-sol-artifact-1",
  "contractName": "Transactions",
  "sourceName": "contracts/Transactions.sol",
  "abi": [
    {
      "anonymous": false,
      "inputs": [
        {
          "indexed": false,
          "internalType": "address",
          "name": "from",
          "type": "address"
        },
        {
          "indexed": false,
          "internalType": "address",
          "name": "receiver",
          "type": "address"
        },
        {
          "indexed": false,
          "internalType": "uint256",
          "name": "amount",
          "type": "uint256"
        },
        {
          "indexed": false,
          "internalType": "string",
          "name": "message",
          "type": "string"
        },
        {
          "indexed": false,
          "internalType": "uint256",
          "name": "timestamp",
          "type": "uint256"
        }
      ],
      "name": "Transfer",
      "type": "event"
    },
    {
      "inputs": [
        {
          "internalType": "address payable",
          "name": "receiver",
          "type": "address"
        },
        {
          "internalType": "uint256",
          "name": "amount",
          "type": "uint256"
        },
        {
          "internalType": "string",
          "name": "message",
          "type": "string"
        }
      ],
      "name": "addToBlockchain",
      "outputs": [],
      "stateMutability": "nonpayable",
      "type": "function"
    },
    {
      "inputs": [],
      "name": "getAllTransactions",
      "outputs": [
        {
          "components": [
            {
              "internalType": "address",
              "name": "sender",
              "type": "address"
            },
            {
              "internalType": "address",
              "name": "receiver",
              "type": "address"
            },
            {
              "internalType": "uint256",
              "name": "amount",
              "type": "uint256"
            },
            {
              "internalType": "string",
              "name": "message",
              "type": "string"
            },
            {
              "internalType": "uint256",
              "name": "timestamp",
              "type": "uint256"
            }
          ],
          "internalType": "struct Transactions.TransferStruct[]",
          "name": "",
          "type": "tuple[]"
        }
      ],
      "stateMutability": "view",
      "type": "function"
    },
    {
      "inputs": [
        {
          "internalType": "address",
          "name": "walletAddress",
          "type": "address"
        }
      ],
      "name": "getBalance",
      "outputs": [
        {
          "internalType": "uint256",
          "name": "",
          "type": "uint256"
        }
      ],
      "stateMutability": "view",
      "type": "function"
    }
  ],
  "bytecode": "0x608060405234801561001057600080fd5b50610d03806100206000396000f3fe608060405234801561001057600080fd5b50600436106100415760003560e01c806327506f5314610046578063eb12da4a14610064578063f8b2cb4f14610080575b600080fd5b61004e6100b0565b60405161005b9190610620565b60405180910390f35b61007e600480360381019061007991906107f5565b610261565b005b61009a60048036038101906100959190610890565b6103dd565b6040516100a791906108cc565b60405180910390f35b60606000805480602002602001604051908101604052809291908181526020016000905b8282101561025857838290600052602060002090600502016040518060a00160405290816000820160009054906101000a900473ffffffffffffffffffffffffffffffffffffffff1673ffffffffffffffffffffffffffffffffffffffff1673ffffffffffffffffffffffffffffffffffffffff1681526020016001820160009054906101000a900473ffffffffffffffffffffffffffffffffffffffff1673ffffffffffffffffffffffffffffffffffffffff1673ffffffffffffffffffffffffffffffffffffffff168152602001600282015481526020016003820180546101bd90610916565b80601f01602080910402602001604051908101604052809291908181526020018280546101e990610916565b80156102365780601f1061020b57610100808354040283529160200191610236565b820191906000526020600020905b81548152906001019060200180831161021957829003601f168201915b50505050508152602001600482015481525050815260200190600101906100d4565b50505050905090565b60006040518060a001604052803373ffffffffffffffffffffffffffffffffffffffff1681526020018573ffffffffffffffffffffffffffffffffffffffff16815260200184815260200183815260200142815250908060018154018082558091505060019003906000526020600020906005020160009091909190915060008201518160000160006101000a81548173ffffffffffffffffffffffffffffffffffffffff021916908373ffffffffffffffffffffffffffffffffffffffff16021790555060208201518160010160006101000a81548173ffffffffffffffffffffffffffffffffffffffff021916908373ffffffffffffffffffffffffffffffffffffffff16021790555060408201518160020155606082015181600301908161038c9190610af3565b506080820151816004015550507fc4b32d7ff75a51e487f3cbb5d3202f2efecca1f4c2b987e0039c1d3220b48a8333848484426040516103d0959493929190610c73565b60405180910390a1505050565b60008173ffffffffffffffffffffffffffffffffffffffff16319050919050565b600081519050919050565b600082825260208201905092915050565b6000819050602082019050919050565b600073ffffffffffffffffffffffffffffffffffffffff82169050919050565b60006104558261042a565b9050919050565b6104658161044a565b82525050565b6000819050919050565b61047e8161046b565b82525050565b600081519050919050565b600082825260208201905092915050565b60005b838110156104be5780820151818401526020810190506104a3565b60008484015250505050565b6000601f19601f8301169050919050565b60006104e682610484565b6104f0818561048f565b93506105008185602086016104a0565b610509816104ca565b840191505092915050565b600060a08301600083015161052c600086018261045c565b50602083015161053f602086018261045c565b5060408301516105526040860182610475565b506060830151848203606086015261056a82826104db565b915050608083015161057f6080860182610475565b508091505092915050565b60006105968383610514565b905092915050565b6000602082019050919050565b60006105b6826103fe565b6105c08185610409565b9350836020820285016105d28561041a565b8060005b8581101561060e57848403895281516105ef858261058a565b94506105fa8361059e565b925060208a019950506001810190506105d6565b50829750879550505050505092915050565b6000602082019050818103600083015261063a81846105ab565b905092915050565b6000604051905090565b600080fd5b600080fd5b60006106618261042a565b9050919050565b61067181610656565b811461067c57600080fd5b50565b60008135905061068e81610668565b92915050565b61069d8161046b565b81146106a857600080fd5b50565b6000813590506106ba81610694565b92915050565b600080fd5b600080fd5b7f4e487b7100000000000000000000000000000000000000000000000000000000600052604160045260246000fd5b610702826104ca565b810181811067ffffffffffffffff82111715610721576107206106ca565b5b80604052505050565b6000610734610642565b905061074082826106f9565b919050565b600067ffffffffffffffff8211156107605761075f6106ca565b5b610769826104ca565b9050602081019050919050565b82818337600083830152505050565b600061079861079384610745565b61072a565b9050828152602081018484840111156107b4576107b36106c5565b5b6107bf848285610776565b509392505050565b600082601f8301126107dc576107db6106c0565b5b81356107ec848260208601610785565b91505092915050565b60008060006060848603121561080e5761080d61064c565b5b600061081c8682870161067f565b935050602061082d868287016106ab565b925050604084013567ffffffffffffffff81111561084e5761084d610651565b5b61085a868287016107c7565b9150509250925092565b61086d8161044a565b811461087857600080fd5b50565b60008135905061088a81610864565b92915050565b6000602082840312156108a6576108a561064c565b5b60006108b48482850161087b565b91505092915050565b6108c68161046b565b82525050565b60006020820190506108e160008301846108bd565b92915050565b7f4e487b7100000000000000000000000000000000000000000000000000000000600052602260045260246000fd5b6000600282049050600182168061092e57607f821691505b602082108103610941576109406108e7565b5b50919050565b60008190508160005260206000209050919050565b60006020601f8301049050919050565b600082821b905092915050565b6000600883026109a97fffffffffffffffffffffffffffffffffffffffffffffffffffffffffffffffff8261096c565b6109b3868361096c565b95508019841693508086168417925050509392505050565b6000819050919050565b60006109f06109eb6109e68461046b565b6109cb565b61046b565b9050919050565b6000819050919050565b610a0a836109d5565b610a1e610a16826109f7565b848454610979565b825550505050565b600090565b610a33610a26565b610a3e818484610a01565b505050565b5b81811015610a6257610a57600082610a2b565b600181019050610a44565b5050565b601f821115610aa757610a7881610947565b610a818461095c565b81016020851015610a90578190505b610aa4610a9c8561095c565b830182610a43565b50505b505050565b600082821c905092915050565b6000610aca60001984600802610aac565b1980831691505092915050565b6000610ae38383610ab9565b9150826002028217905092915050565b610afc82610484565b67ffffffffffffffff811115610b1557610b146106ca565b5b610b1f8254610916565b610b2a828285610a66565b600060209050601f831160018114610b5d5760008415610b4b578287015190505b610b558582610ad7565b865550610bbd565b601f198416610b6b86610947565b60005b82811015610b9357848901518255600182019150602085019450602081019050610b6e565b86831015610bb05784890151610bac601f891682610ab9565b8355505b6001600288020188555050505b505050505050565b610bce8161044a565b82525050565b6000610bef610bea610be58461042a565b6109cb565b61042a565b9050919050565b6000610c0182610bd4565b9050919050565b6000610c1382610bf6565b9050919050565b610c2381610c08565b82525050565b600082825260208201905092915050565b6000610c4582610484565b610c4f8185610c29565b9350610c5f8185602086016104a0565b610c68816104ca565b840191505092915050565b600060a082019050610c886000830188610bc5565b610c956020830187610c1a565b610ca260408301866108bd565b8181036060830152610cb48185610c3a565b9050610cc360808301846108bd565b969550505050505056fea264697066735822122046806de4658a10d695f0a999cd16fd83c924d5d0ab2dc61fb3f6bd3ed295ac4664736f6c63430008120033",
  "linkReferences": {},
  "deployedLinkReferences": {}
}